{
  "contractName": "SimpleStorage",
  "abi": [
    {
      "inputs": [],
      "payable": false,
      "stateMutability": "nonpayable",
      "type": "constructor"
    },
    {
      "constant": true,
      "inputs": [
        {
          "internalType": "address",
          "name": "",
          "type": "address"
        }
      ],
      "name": "citizens",
      "outputs": [
        {
          "internalType": "address",
          "name": "citizenID",
          "type": "address"
        },
        {
          "internalType": "string",
          "name": "nome",
          "type": "string"
        },
        {
          "internalType": "string",
          "name": "cpf",
          "type": "string"
        },
        {
          "internalType": "string",
          "name": "cor",
          "type": "string"
        },
        {
          "internalType": "uint256",
          "name": "dataNascimento",
          "type": "uint256"
        },
        {
          "internalType": "string",
          "name": "ocupacao",
          "type": "string"
        },
        {
          "internalType": "string",
          "name": "genero",
          "type": "string"
        },
        {
          "internalType": "string",
          "name": "nacionalidade",
          "type": "string"
        }
      ],
      "payable": false,
      "stateMutability": "view",
      "type": "function"
    },
    {
      "constant": true,
      "inputs": [],
      "name": "owner",
      "outputs": [
        {
          "internalType": "address",
          "name": "",
          "type": "address"
        }
      ],
      "payable": false,
      "stateMutability": "view",
      "type": "function"
    },
    {
      "constant": false,
      "inputs": [
        {
          "internalType": "string",
          "name": "nome",
          "type": "string"
        },
        {
          "internalType": "string",
          "name": "cpf",
          "type": "string"
        },
        {
          "internalType": "string",
          "name": "cor",
          "type": "string"
        },
        {
          "internalType": "uint256",
          "name": "dataNascimento",
          "type": "uint256"
        },
        {
          "internalType": "string",
          "name": "ocupacao",
          "type": "string"
        },
        {
          "internalType": "string",
          "name": "genero",
          "type": "string"
        },
        {
          "internalType": "string",
          "name": "nacionalidade",
          "type": "string"
        }
      ],
      "name": "setCitizen",
      "outputs": [],
      "payable": false,
      "stateMutability": "nonpayable",
      "type": "function"
    },
    {
      "constant": true,
      "inputs": [
        {
          "internalType": "address",
          "name": "citizenID",
          "type": "address"
        },
        {
          "internalType": "string",
          "name": "cpf",
          "type": "string"
        }
      ],
      "name": "checkCPF",
      "outputs": [
        {
          "internalType": "bool",
          "name": "",
          "type": "bool"
        }
      ],
      "payable": false,
      "stateMutability": "view",
      "type": "function"
    },
    {
      "constant": true,
      "inputs": [
        {
          "internalType": "address",
          "name": "citizenID",
          "type": "address"
        },
        {
          "internalType": "string",
          "name": "nome",
          "type": "string"
        }
      ],
      "name": "checkNome",
      "outputs": [
        {
          "internalType": "bool",
          "name": "",
          "type": "bool"
        }
      ],
      "payable": false,
      "stateMutability": "view",
      "type": "function"
    },
    {
      "constant": true,
      "inputs": [
        {
          "internalType": "address",
          "name": "citizenID",
          "type": "address"
        },
        {
          "internalType": "string",
          "name": "cor",
          "type": "string"
        }
      ],
      "name": "checkCor",
      "outputs": [
        {
          "internalType": "bool",
          "name": "",
          "type": "bool"
        }
      ],
      "payable": false,
      "stateMutability": "view",
      "type": "function"
    },
    {
      "constant": true,
      "inputs": [
        {
          "internalType": "address",
          "name": "citizenID",
          "type": "address"
        }
      ],
      "name": "checkAge",
      "outputs": [
        {
          "internalType": "bool",
          "name": "",
          "type": "bool"
        }
      ],
      "payable": false,
      "stateMutability": "view",
      "type": "function"
    }
  ],
  "bytecode": "0x608060405234801561001057600080fd5b50336000806101000a81548173ffffffffffffffffffffffffffffffffffffffff021916908373ffffffffffffffffffffffffffffffffffffffff1602179055506115c7806100606000396000f3fe608060405234801561001057600080fd5b506004361061007d5760003560e01c80639df7fcbe1161005b5780639df7fcbe146104e0578063d02bdc7d146105d3578063d4f910a7146106c6578063ebe58abf146109d95761007d565b80632820dc391461008257806361f4cd1d1461043a5780638da5cb5b14610496575b600080fd5b610438600480360360e081101561009857600080fd5b81019080803590602001906401000000008111156100b557600080fd5b8201836020820111156100c757600080fd5b803590602001918460018302840111640100000000831117156100e957600080fd5b91908080601f016020809104026020016040519081016040528093929190818152602001838380828437600081840152601f19601f8201169050808301925050505050505091929192908035906020019064010000000081111561014c57600080fd5b82018360208201111561015e57600080fd5b8035906020019184600183028401116401000000008311171561018057600080fd5b91908080601f016020809104026020016040519081016040528093929190818152602001838380828437600081840152601f19601f820116905080830192505050505050509192919290803590602001906401000000008111156101e357600080fd5b8201836020820111156101f557600080fd5b8035906020019184600183028401116401000000008311171561021757600080fd5b91908080601f016020809104026020016040519081016040528093929190818152602001838380828437600081840152601f19601f820116905080830192505050505050509192919290803590602001909291908035906020019064010000000081111561028457600080fd5b82018360208201111561029657600080fd5b803590602001918460018302840111640100000000831117156102b857600080fd5b91908080601f016020809104026020016040519081016040528093929190818152602001838380828437600081840152601f19601f8201169050808301925050505050505091929192908035906020019064010000000081111561031b57600080fd5b82018360208201111561032d57600080fd5b8035906020019184600183028401116401000000008311171561034f57600080fd5b91908080601f016020809104026020016040519081016040528093929190818152602001838380828437600081840152601f19601f820116905080830192505050505050509192919290803590602001906401000000008111156103b257600080fd5b8201836020820111156103c457600080fd5b803590602001918460018302840111640100000000831117156103e657600080fd5b91908080601f016020809104026020016040519081016040528093929190818152602001838380828437600081840152601f19601f820116905080830192505050505050509192919290505050610acc565b005b61047c6004803603602081101561045057600080fd5b81019080803573ffffffffffffffffffffffffffffffffffffffff169060200190929190505050610c66565b604051808215151515815260200191505060405180910390f35b61049e610cf5565b604051808273ffffffffffffffffffffffffffffffffffffffff1673ffffffffffffffffffffffffffffffffffffffff16815260200191505060405180910390f35b6105b9600480360360408110156104f657600080fd5b81019080803573ffffffffffffffffffffffffffffffffffffffff1690602001909291908035906020019064010000000081111561053357600080fd5b82018360208201111561054557600080fd5b8035906020019184600183028401116401000000008311171561056757600080fd5b91908080601f016020809104026020016040519081016040528093929190818152602001838380828437600081840152601f19601f820116905080830192505050505050509192919290505050610d1a565b604051808215151515815260200191505060405180910390f35b6106ac600480360360408110156105e957600080fd5b81019080803573ffffffffffffffffffffffffffffffffffffffff1690602001909291908035906020019064010000000081111561062657600080fd5b82018360208201111561063857600080fd5b8035906020019184600183028401116401000000008311171561065a57600080fd5b91908080601f016020809104026020016040519081016040528093929190818152602001838380828437600081840152601f19601f820116905080830192505050505050509192919290505050610e63565b604051808215151515815260200191505060405180910390f35b610708600480360360208110156106dc57600080fd5b81019080803573ffffffffffffffffffffffffffffffffffffffff169060200190929190505050610fac565b604051808973ffffffffffffffffffffffffffffffffffffffff1673ffffffffffffffffffffffffffffffffffffffff16815260200180602001806020018060200188815260200180602001806020018060200187810387528e818151815260200191508051906020019080838360005b83811015610794578082015181840152602081019050610779565b50505050905090810190601f1680156107c15780820380516001836020036101000a031916815260200191505b5087810386528d818151815260200191508051906020019080838360005b838110156107fa5780820151818401526020810190506107df565b50505050905090810190601f1680156108275780820380516001836020036101000a031916815260200191505b5087810385528c818151815260200191508051906020019080838360005b83811015610860578082015181840152602081019050610845565b50505050905090810190601f16801561088d5780820380516001836020036101000a031916815260200191505b5087810384528a818151815260200191508051906020019080838360005b838110156108c65780820151818401526020810190506108ab565b50505050905090810190601f1680156108f35780820380516001836020036101000a031916815260200191505b50878103835289818151815260200191508051906020019080838360005b8381101561092c578082015181840152602081019050610911565b50505050905090810190601f1680156109595780820380516001836020036101000a031916815260200191505b50878103825288818151815260200191508051906020019080838360005b83811015610992578082015181840152602081019050610977565b50505050905090810190601f1680156109bf5780820380516001836020036101000a031916815260200191505b509e50505050505050505050505050505060405180910390f35b610ab2600480360360408110156109ef57600080fd5b81019080803573ffffffffffffffffffffffffffffffffffffffff16906020019092919080359060200190640100000000811115610a2c57600080fd5b820183602082011115610a3e57600080fd5b80359060200191846001830284011164010000000083111715610a6057600080fd5b91908080601f016020809104026020016040519081016040528093929190818152602001838380828437600081840152601f19601f8201169050808301925050505050505091929192905050506113a4565b604051808215151515815260200191505060405180910390f35b6040518061010001604052803373ffffffffffffffffffffffffffffffffffffffff16815260200188815260200187815260200186815260200185815260200184815260200183815260200182815250600160003373ffffffffffffffffffffffffffffffffffffffff1673ffffffffffffffffffffffffffffffffffffffff16815260200190815260200160002060008201518160000160006101000a81548173ffffffffffffffffffffffffffffffffffffffff021916908373ffffffffffffffffffffffffffffffffffffffff1602179055506020820151816001019080519060200190610bbe9291906114ed565b506040820151816002019080519060200190610bdb9291906114ed565b506060820151816003019080519060200190610bf89291906114ed565b506080820151816004015560a0820151816005019080519060200190610c1f9291906114ed565b5060c0820151816006019080519060200190610c3c9291906114ed565b5060e0820151816007019080519060200190610c599291906114ed565b5090505050505050505050565b60008061016d6018603c80600160008873ffffffffffffffffffffffffffffffffffffffff1673ffffffffffffffffffffffffffffffffffffffff16815260200190815260200160002060040154420381610cbd57fe5b0481610cc557fe5b0481610ccd57fe5b0481610cd557fe5b04905060128110610cea576001915050610cf0565b60009150505b919050565b6000809054906101000a900473ffffffffffffffffffffffffffffffffffffffff1681565b6000816040516020018082805190602001908083835b60208310610d535780518252602082019150602081019050602083039250610d30565b6001836020036101000a03801982511681845116808217855250505050505090500191505060405160208183030381529060405280519060200120600160008573ffffffffffffffffffffffffffffffffffffffff1673ffffffffffffffffffffffffffffffffffffffff1681526020019081526020016000206003016040516020018082805460018160011615610100020316600290048015610e2e5780601f10610e0c576101008083540402835291820191610e2e565b820191906000526020600020905b815481529060010190602001808311610e1a575b5050915050604051602081830303815290604052805190602001201415610e585760019050610e5d565b600090505b92915050565b6000816040516020018082805190602001908083835b60208310610e9c5780518252602082019150602081019050602083039250610e79565b6001836020036101000a03801982511681845116808217855250505050505090500191505060405160208183030381529060405280519060200120600160008573ffffffffffffffffffffffffffffffffffffffff1673ffffffffffffffffffffffffffffffffffffffff1681526020019081526020016000206001016040516020018082805460018160011615610100020316600290048015610f775780601f10610f55576101008083540402835291820191610f77565b820191906000526020600020905b815481529060010190602001808311610f63575b5050915050604051602081830303815290604052805190602001201415610fa15760019050610fa6565b600090505b92915050565b60016020528060005260406000206000915090508060000160009054906101000a900473ffffffffffffffffffffffffffffffffffffffff1690806001018054600181600116156101000203166002900480601f01602080910402602001604051908101604052809291908181526020018280546001816001161561010002031660029004801561107e5780601f106110535761010080835404028352916020019161107e565b820191906000526020600020905b81548152906001019060200180831161106157829003601f168201915b505050505090806002018054600181600116156101000203166002900480601f01602080910402602001604051908101604052809291908181526020018280546001816001161561010002031660029004801561111c5780601f106110f15761010080835404028352916020019161111c565b820191906000526020600020905b8154815290600101906020018083116110ff57829003601f168201915b505050505090806003018054600181600116156101000203166002900480601f0160208091040260200160405190810160405280929190818152602001828054600181600116156101000203166002900480156111ba5780601f1061118f576101008083540402835291602001916111ba565b820191906000526020600020905b81548152906001019060200180831161119d57829003601f168201915b505050505090806004015490806005018054600181600116156101000203166002900480601f01602080910402602001604051908101604052809291908181526020018280546001816001161561010002031660029004801561125e5780601f106112335761010080835404028352916020019161125e565b820191906000526020600020905b81548152906001019060200180831161124157829003601f168201915b505050505090806006018054600181600116156101000203166002900480601f0160208091040260200160405190810160405280929190818152602001828054600181600116156101000203166002900480156112fc5780601f106112d1576101008083540402835291602001916112fc565b820191906000526020600020905b8154815290600101906020018083116112df57829003601f168201915b505050505090806007018054600181600116156101000203166002900480601f01602080910402602001604051908101604052809291908181526020018280546001816001161561010002031660029004801561139a5780601f1061136f5761010080835404028352916020019161139a565b820191906000526020600020905b81548152906001019060200180831161137d57829003601f168201915b5050505050905088565b6000816040516020018082805190602001908083835b602083106113dd57805182526020820191506020810190506020830392506113ba565b6001836020036101000a03801982511681845116808217855250505050505090500191505060405160208183030381529060405280519060200120600160008573ffffffffffffffffffffffffffffffffffffffff1673ffffffffffffffffffffffffffffffffffffffff16815260200190815260200160002060020160405160200180828054600181600116156101000203166002900480156114b85780601f106114965761010080835404028352918201916114b8565b820191906000526020600020905b8154815290600101906020018083116114a4575b50509150506040516020818303038152906040528051906020012014156114e257600190506114e7565b600090505b92915050565b828054600181600116156101000203166002900490600052602060002090601f016020900481019282601f1061152e57805160ff191683800117855561155c565b8280016001018555821561155c579182015b8281111561155b578251825591602001919060010190611540565b5b509050611569919061156d565b5090565b61158f91905b8082111561158b576000816000905550600101611573565b5090565b9056fea265627a7a72315820070609a1b20ad28b39a0a34450c5e5a96a635380fae8e4541e2e901c7adaf38b64736f6c63430005100032",
  "source": "pragma solidity >=0.5.0 <0.7.0;\n\ncontract SimpleStorage {\n\taddress public owner;\n\n    struct Citizen {\n\t\taddress citizenID;\n        string nome;\n        string cpf;\n        string cor;\n        uint256 dataNascimento;\n        string ocupacao;\n        string genero;\n        string nacionalidade;\n\t}\n\n\tmapping(address => Citizen) public citizens;\n\n    constructor() public {\n        owner = msg.sender;\n    }\n\n    function setCitizen(string memory nome, string memory cpf, string memory cor, uint256 dataNascimento,\n                        string memory ocupacao, string memory genero, string memory nacionalidade) public {\n\n        citizens[msg.sender] = Citizen(msg.sender, nome, cpf, cor, dataNascimento, ocupacao, genero, nacionalidade);\n    }\n\n    function checkCPF(address citizenID, string memory cpf) public view returns (bool) {\n\n        if (keccak256(abi.encodePacked(citizens[citizenID].cpf)) == keccak256(abi.encodePacked(cpf))){\n            return true;\n        }\n        return false;\n    }\n\n    function checkNome(address citizenID, string memory nome) public view returns (bool) {\n\n        if (keccak256(abi.encodePacked(citizens[citizenID].nome)) == keccak256(abi.encodePacked(nome))){\n            return true;\n        }\n        return false;\n    }\n\n    function checkCor(address citizenID, string memory cor) public view returns (bool) {\n\n        if (keccak256(abi.encodePacked(citizens[citizenID].cor)) == keccak256(abi.encodePacked(cor))){\n            return true;\n        }\n        return false;\n    }\n\n    function checkAge(address citizenID) public view returns (bool) {\n\n        uint256 idade = (((((now - citizens[citizenID].dataNascimento) / 60) / 60) / 24) / 365);\n\n        if (idade >= 18){\n            return true;\n        }\n\n        return false;\n    }\n}",
  "sourcePath": "/home/vinicius/Documents/Insper/7_semestre/ativos/my-bank/contracts/Identidade.sol",
  "compiler": {
    "name": "solc",
    "version": "0.5.16+commit.9c3226ce.Emscripten.clang"
  },
  "schemaVersion": "3.1.0",
  "updatedAt": "2020-06-16T12:05:46.407Z",
  "devdoc": {
    "methods": {}
  },
  "userdoc": {
    "methods": {}
  }
}